{
  "_format": "hh-sol-artifact-1",
  "contractName": "Storage",
  "sourceName": "contracts/Storage.sol",
  "abi": [
    {
      "anonymous": false,
      "inputs": [
        {
          "indexed": false,
          "internalType": "address",
          "name": "user",
          "type": "address"
        },
        {
          "indexed": false,
          "internalType": "string",
          "name": "id",
          "type": "string"
        }
      ],
      "name": "FileUploaded",
      "type": "event"
    },
    {
      "inputs": [],
      "name": "filesUploaded",
      "outputs": [
        {
          "internalType": "uint256",
          "name": "",
          "type": "uint256"
        }
      ],
      "stateMutability": "view",
      "type": "function"
    },
    {
      "inputs": [
        {
          "internalType": "string",
          "name": "id",
          "type": "string"
        }
      ],
      "name": "uploadFile",
      "outputs": [],
      "stateMutability": "nonpayable",
      "type": "function"
    },
    {
      "inputs": [
        {
          "internalType": "address",
          "name": "",
          "type": "address"
        }
      ],
      "name": "userFile",
      "outputs": [
        {
          "internalType": "string",
          "name": "",
          "type": "string"
        }
      ],
      "stateMutability": "view",
      "type": "function"
    }
  ],
  "bytecode": "0x608060405234801561001057600080fd5b5061079a806100206000396000f3fe608060405234801561001057600080fd5b50600436106100415760003560e01c806396b9f7ac14610046578063e37ffc3014610076578063f8aaf31a14610092575b600080fd5b610060600480360381019061005b9190610379565b6100b0565b60405161006d919061048d565b60405180910390f35b610090600480360381019061008b91906103a2565b610150565b005b61009a61023f565b6040516100a791906104cf565b60405180910390f35b600160205280600052604060002060009150905080546100cf906105da565b80601f01602080910402602001604051908101604052809291908181526020018280546100fb906105da565b80156101485780601f1061011d57610100808354040283529160200191610148565b820191906000526020600020905b81548152906001019060200180831161012b57829003601f168201915b505050505081565b61015981610245565b610198576040517f08c379a000000000000000000000000000000000000000000000000000000000815260040161018f906104af565b60405180910390fd5b80600160003373ffffffffffffffffffffffffffffffffffffffff1673ffffffffffffffffffffffffffffffffffffffff16815260200190815260200160002090805190602001906101eb929190610259565b506000808154809291906101fe9061063d565b91905055507f5378764a7f2ef654d29aa1cad65388f3dade11c871fbcd558bf6b56be0e37de8338260405161023492919061045d565b60405180910390a150565b60005481565b600080829050600081511415915050919050565b828054610265906105da565b90600052602060002090601f01602090048101928261028757600085556102ce565b82601f106102a057805160ff19168380011785556102ce565b828001600101855582156102ce579182015b828111156102cd5782518255916020019190600101906102b2565b5b5090506102db91906102df565b5090565b5b808211156102f85760008160009055506001016102e0565b5090565b600061030f61030a8461050f565b6104ea565b90508281526020810184848401111561032757600080fd5b610332848285610598565b509392505050565b6000813590506103498161074d565b92915050565b600082601f83011261036057600080fd5b81356103708482602086016102fc565b91505092915050565b60006020828403121561038b57600080fd5b60006103998482850161033a565b91505092915050565b6000602082840312156103b457600080fd5b600082013567ffffffffffffffff8111156103ce57600080fd5b6103da8482850161034f565b91505092915050565b6103ec8161055c565b82525050565b60006103fd82610540565b610407818561054b565b93506104178185602086016105a7565b61042081610713565b840191505092915050565b6000610438600a8361054b565b915061044382610724565b602082019050919050565b6104578161058e565b82525050565b600060408201905061047260008301856103e3565b818103602083015261048481846103f2565b90509392505050565b600060208201905081810360008301526104a781846103f2565b905092915050565b600060208201905081810360008301526104c88161042b565b9050919050565b60006020820190506104e4600083018461044e565b92915050565b60006104f4610505565b9050610500828261060c565b919050565b6000604051905090565b600067ffffffffffffffff82111561052a576105296106e4565b5b61053382610713565b9050602081019050919050565b600081519050919050565b600082825260208201905092915050565b60006105678261056e565b9050919050565b600073ffffffffffffffffffffffffffffffffffffffff82169050919050565b6000819050919050565b82818337600083830152505050565b60005b838110156105c55780820151818401526020810190506105aa565b838111156105d4576000848401525b50505050565b600060028204905060018216806105f257607f821691505b60208210811415610606576106056106b5565b5b50919050565b61061582610713565b810181811067ffffffffffffffff82111715610634576106336106e4565b5b80604052505050565b60006106488261058e565b91507fffffffffffffffffffffffffffffffffffffffffffffffffffffffffffffffff82141561067b5761067a610686565b5b600182019050919050565b7f4e487b7100000000000000000000000000000000000000000000000000000000600052601160045260246000fd5b7f4e487b7100000000000000000000000000000000000000000000000000000000600052602260045260246000fd5b7f4e487b7100000000000000000000000000000000000000000000000000000000600052604160045260246000fd5b6000601f19601f8301169050919050565b7f496e76616c696420696400000000000000000000000000000000000000000000600082015250565b6107568161055c565b811461076157600080fd5b5056fea2646970667358221220045aa896be19ffb8627a897fd004370768d201af5ad473653ecfafb1ed25a46c64736f6c63430008040033",
  "linkReferences": {},
  "deployedLinkReferences": {}
}